{
  "_format": "hh-sol-artifact-1",
  "contractName": "NftGame",
  "sourceName": "contracts/NftGame.sol",
  "abi": [
    {
      "inputs": [
        {
          "internalType": "string[]",
          "name": "characterNames",
          "type": "string[]"
        },
        {
          "internalType": "string[]",
          "name": "characterImageURIs",
          "type": "string[]"
        },
        {
          "internalType": "uint256[]",
          "name": "characterHp",
          "type": "uint256[]"
        },
        {
          "internalType": "uint256[]",
          "name": "characterAttackDmg",
          "type": "uint256[]"
        },
        {
          "internalType": "string",
          "name": "bossName",
          "type": "string"
        },
        {
          "internalType": "string",
          "name": "bossImageURI",
          "type": "string"
        },
        {
          "internalType": "uint256",
          "name": "bossHp",
          "type": "uint256"
        },
        {
          "internalType": "uint256",
          "name": "bossAttackDamage",
          "type": "uint256"
        }
      ],
      "stateMutability": "nonpayable",
      "type": "constructor"
    },
    {
      "anonymous": false,
      "inputs": [
        {
          "indexed": true,
          "internalType": "address",
          "name": "owner",
          "type": "address"
        },
        {
          "indexed": true,
          "internalType": "address",
          "name": "approved",
          "type": "address"
        },
        {
          "indexed": true,
          "internalType": "uint256",
          "name": "tokenId",
          "type": "uint256"
        }
      ],
      "name": "Approval",
      "type": "event"
    },
    {
      "anonymous": false,
      "inputs": [
        {
          "indexed": true,
          "internalType": "address",
          "name": "owner",
          "type": "address"
        },
        {
          "indexed": true,
          "internalType": "address",
          "name": "operator",
          "type": "address"
        },
        {
          "indexed": false,
          "internalType": "bool",
          "name": "approved",
          "type": "bool"
        }
      ],
      "name": "ApprovalForAll",
      "type": "event"
    },
    {
      "anonymous": false,
      "inputs": [
        {
          "indexed": false,
          "internalType": "address",
          "name": "sender",
          "type": "address"
        },
        {
          "indexed": false,
          "internalType": "uint256",
          "name": "newBossHp",
          "type": "uint256"
        },
        {
          "indexed": false,
          "internalType": "uint256",
          "name": "newPlayerHp",
          "type": "uint256"
        }
      ],
      "name": "AttackComplete",
      "type": "event"
    },
    {
      "anonymous": false,
      "inputs": [
        {
          "indexed": false,
          "internalType": "address",
          "name": "sender",
          "type": "address"
        },
        {
          "indexed": false,
          "internalType": "uint256",
          "name": "tokenId",
          "type": "uint256"
        },
        {
          "indexed": false,
          "internalType": "uint256",
          "name": "characterIndex",
          "type": "uint256"
        }
      ],
      "name": "CharacterNFTMinted",
      "type": "event"
    },
    {
      "anonymous": false,
      "inputs": [
        {
          "indexed": true,
          "internalType": "address",
          "name": "from",
          "type": "address"
        },
        {
          "indexed": true,
          "internalType": "address",
          "name": "to",
          "type": "address"
        },
        {
          "indexed": true,
          "internalType": "uint256",
          "name": "tokenId",
          "type": "uint256"
        }
      ],
      "name": "Transfer",
      "type": "event"
    },
    {
      "inputs": [
        {
          "internalType": "address",
          "name": "to",
          "type": "address"
        },
        {
          "internalType": "uint256",
          "name": "tokenId",
          "type": "uint256"
        }
      ],
      "name": "approve",
      "outputs": [],
      "stateMutability": "nonpayable",
      "type": "function"
    },
    {
      "inputs": [],
      "name": "attackBoss",
      "outputs": [],
      "stateMutability": "nonpayable",
      "type": "function"
    },
    {
      "inputs": [
        {
          "internalType": "address",
          "name": "owner",
          "type": "address"
        }
      ],
      "name": "balanceOf",
      "outputs": [
        {
          "internalType": "uint256",
          "name": "",
          "type": "uint256"
        }
      ],
      "stateMutability": "view",
      "type": "function"
    },
    {
      "inputs": [],
      "name": "bigBoss",
      "outputs": [
        {
          "internalType": "string",
          "name": "name",
          "type": "string"
        },
        {
          "internalType": "string",
          "name": "imageURI",
          "type": "string"
        },
        {
          "internalType": "uint256",
          "name": "hp",
          "type": "uint256"
        },
        {
          "internalType": "uint256",
          "name": "maxHp",
          "type": "uint256"
        },
        {
          "internalType": "uint256",
          "name": "attackDamage",
          "type": "uint256"
        }
      ],
      "stateMutability": "view",
      "type": "function"
    },
    {
      "inputs": [],
      "name": "checkIfUserHasNFT",
      "outputs": [
        {
          "components": [
            {
              "internalType": "uint256",
              "name": "characterIndex",
              "type": "uint256"
            },
            {
              "internalType": "uint256",
              "name": "hp",
              "type": "uint256"
            },
            {
              "internalType": "uint256",
              "name": "maxHp",
              "type": "uint256"
            },
            {
              "internalType": "uint256",
              "name": "attackDamage",
              "type": "uint256"
            },
            {
              "internalType": "string",
              "name": "name",
              "type": "string"
            },
            {
              "internalType": "string",
              "name": "imageURI",
              "type": "string"
            }
          ],
          "internalType": "struct NftGame.CharacterAttributes",
          "name": "",
          "type": "tuple"
        }
      ],
      "stateMutability": "view",
      "type": "function"
    },
    {
      "inputs": [],
      "name": "getAllDefaultCharacters",
      "outputs": [
        {
          "components": [
            {
              "internalType": "uint256",
              "name": "characterIndex",
              "type": "uint256"
            },
            {
              "internalType": "uint256",
              "name": "hp",
              "type": "uint256"
            },
            {
              "internalType": "uint256",
              "name": "maxHp",
              "type": "uint256"
            },
            {
              "internalType": "uint256",
              "name": "attackDamage",
              "type": "uint256"
            },
            {
              "internalType": "string",
              "name": "name",
              "type": "string"
            },
            {
              "internalType": "string",
              "name": "imageURI",
              "type": "string"
            }
          ],
          "internalType": "struct NftGame.CharacterAttributes[]",
          "name": "",
          "type": "tuple[]"
        }
      ],
      "stateMutability": "view",
      "type": "function"
    },
    {
      "inputs": [
        {
          "internalType": "uint256",
          "name": "tokenId",
          "type": "uint256"
        }
      ],
      "name": "getApproved",
      "outputs": [
        {
          "internalType": "address",
          "name": "",
          "type": "address"
        }
      ],
      "stateMutability": "view",
      "type": "function"
    },
    {
      "inputs": [],
      "name": "getBigBoss",
      "outputs": [
        {
          "components": [
            {
              "internalType": "string",
              "name": "name",
              "type": "string"
            },
            {
              "internalType": "string",
              "name": "imageURI",
              "type": "string"
            },
            {
              "internalType": "uint256",
              "name": "hp",
              "type": "uint256"
            },
            {
              "internalType": "uint256",
              "name": "maxHp",
              "type": "uint256"
            },
            {
              "internalType": "uint256",
              "name": "attackDamage",
              "type": "uint256"
            }
          ],
          "internalType": "struct NftGame.BigBoss",
          "name": "",
          "type": "tuple"
        }
      ],
      "stateMutability": "view",
      "type": "function"
    },
    {
      "inputs": [
        {
          "internalType": "address",
          "name": "owner",
          "type": "address"
        },
        {
          "internalType": "address",
          "name": "operator",
          "type": "address"
        }
      ],
      "name": "isApprovedForAll",
      "outputs": [
        {
          "internalType": "bool",
          "name": "",
          "type": "bool"
        }
      ],
      "stateMutability": "view",
      "type": "function"
    },
    {
      "inputs": [
        {
          "internalType": "uint256",
          "name": "_characterIndex",
          "type": "uint256"
        }
      ],
      "name": "mintCharacterNFT",
      "outputs": [],
      "stateMutability": "nonpayable",
      "type": "function"
    },
    {
      "inputs": [],
      "name": "name",
      "outputs": [
        {
          "internalType": "string",
          "name": "",
          "type": "string"
        }
      ],
      "stateMutability": "view",
      "type": "function"
    },
    {
      "inputs": [
        {
          "internalType": "uint256",
          "name": "",
          "type": "uint256"
        }
      ],
      "name": "nftHolderAttributes",
      "outputs": [
        {
          "internalType": "uint256",
          "name": "characterIndex",
          "type": "uint256"
        },
        {
          "internalType": "uint256",
          "name": "hp",
          "type": "uint256"
        },
        {
          "internalType": "uint256",
          "name": "maxHp",
          "type": "uint256"
        },
        {
          "internalType": "uint256",
          "name": "attackDamage",
          "type": "uint256"
        },
        {
          "internalType": "string",
          "name": "name",
          "type": "string"
        },
        {
          "internalType": "string",
          "name": "imageURI",
          "type": "string"
        }
      ],
      "stateMutability": "view",
      "type": "function"
    },
    {
      "inputs": [
        {
          "internalType": "address",
          "name": "",
          "type": "address"
        }
      ],
      "name": "nftHolders",
      "outputs": [
        {
          "internalType": "uint256",
          "name": "",
          "type": "uint256"
        }
      ],
      "stateMutability": "view",
      "type": "function"
    },
    {
      "inputs": [
        {
          "internalType": "uint256",
          "name": "tokenId",
          "type": "uint256"
        }
      ],
      "name": "ownerOf",
      "outputs": [
        {
          "internalType": "address",
          "name": "",
          "type": "address"
        }
      ],
      "stateMutability": "view",
      "type": "function"
    },
    {
      "inputs": [
        {
          "internalType": "address",
          "name": "from",
          "type": "address"
        },
        {
          "internalType": "address",
          "name": "to",
          "type": "address"
        },
        {
          "internalType": "uint256",
          "name": "tokenId",
          "type": "uint256"
        }
      ],
      "name": "safeTransferFrom",
      "outputs": [],
      "stateMutability": "nonpayable",
      "type": "function"
    },
    {
      "inputs": [
        {
          "internalType": "address",
          "name": "from",
          "type": "address"
        },
        {
          "internalType": "address",
          "name": "to",
          "type": "address"
        },
        {
          "internalType": "uint256",
          "name": "tokenId",
          "type": "uint256"
        },
        {
          "internalType": "bytes",
          "name": "data",
          "type": "bytes"
        }
      ],
      "name": "safeTransferFrom",
      "outputs": [],
      "stateMutability": "nonpayable",
      "type": "function"
    },
    {
      "inputs": [
        {
          "internalType": "address",
          "name": "operator",
          "type": "address"
        },
        {
          "internalType": "bool",
          "name": "approved",
          "type": "bool"
        }
      ],
      "name": "setApprovalForAll",
      "outputs": [],
      "stateMutability": "nonpayable",
      "type": "function"
    },
    {
      "inputs": [
        {
          "internalType": "bytes4",
          "name": "interfaceId",
          "type": "bytes4"
        }
      ],
      "name": "supportsInterface",
      "outputs": [
        {
          "internalType": "bool",
          "name": "",
          "type": "bool"
        }
      ],
      "stateMutability": "view",
      "type": "function"
    },
    {
      "inputs": [],
      "name": "symbol",
      "outputs": [
        {
          "internalType": "string",
          "name": "",
          "type": "string"
        }
      ],
      "stateMutability": "view",
      "type": "function"
    },
    {
      "inputs": [
        {
          "internalType": "uint256",
          "name": "_tokenId",
          "type": "uint256"
        }
      ],
      "name": "tokenURI",
      "outputs": [
        {
          "internalType": "string",
          "name": "",
          "type": "string"
        }
      ],
      "stateMutability": "view",
      "type": "function"
    },
    {
      "inputs": [
        {
          "internalType": "address",
          "name": "from",
          "type": "address"
        },
        {
          "internalType": "address",
          "name": "to",
          "type": "address"
        },
        {
          "internalType": "uint256",
          "name": "tokenId",
          "type": "uint256"
        }
      ],
      "name": "transferFrom",
      "outputs": [],
      "stateMutability": "nonpayable",
      "type": "function"
    }
  ],
  "bytecode": "0x60806040523480156200001157600080fd5b50604051620056d2380380620056d2833981810160405281019062000037919062000a5a565b6040518060400160405280600581526020017f42656b69720000000000000000000000000000000000000000000000000000008152506040518060400160405280600381526020017f424b5200000000000000000000000000000000000000000000000000000000008152508160009080519060200190620000bb929190620007ed565b508060019080519060200190620000d4929190620007ed565b50505060005b8851811015620004f357600c6040518060c0016040528083815260200189848151811062000131577f4e487b7100000000000000000000000000000000000000000000000000000000600052603260045260246000fd5b6020026020010151815260200189848151811062000178577f4e487b7100000000000000000000000000000000000000000000000000000000600052603260045260246000fd5b60200260200101518152602001888481518110620001bf577f4e487b7100000000000000000000000000000000000000000000000000000000600052603260045260246000fd5b602002602001015181526020018b848151811062000206577f4e487b7100000000000000000000000000000000000000000000000000000000600052603260045260246000fd5b602002602001015181526020018a84815181106200024d577f4e487b7100000000000000000000000000000000000000000000000000000000600052603260045260246000fd5b60200260200101518152509080600181540180825580915050600190039060005260206000209060060201600090919091909150600082015181600001556020820151816001015560408201518160020155606082015181600301556080820151816004019080519060200190620002c7929190620007ed565b5060a0820151816005019080519060200190620002e6929190620007ed565b5050506000600c828154811062000326577f4e487b7100000000000000000000000000000000000000000000000000000000600052603260045260246000fd5b90600052602060002090600602016040518060c001604052908160008201548152602001600182015481526020016002820154815260200160038201548152602001600482018054620003799062000ddd565b80601f0160208091040260200160405190810160405280929190818152602001828054620003a79062000ddd565b8015620003f85780601f10620003cc57610100808354040283529160200191620003f8565b820191906000526020600020905b815481529060010190602001808311620003da57829003601f168201915b50505050508152602001600582018054620004139062000ddd565b80601f0160208091040260200160405190810160405280929190818152602001828054620004419062000ddd565b8015620004925780601f10620004665761010080835404028352916020019162000492565b820191906000526020600020905b8154815290600101906020018083116200047457829003601f168201915b5050505050815250509050620004db6040518060600160405280602681526020016200568260269139826080015183602001518460a001516200070260201b62001b981760201c565b50600181620004eb919062000d40565b9050620000da565b506040518060a0016040528085815260200184815260200183815260200183815260200182815250600660008201518160000190805190602001906200053b929190620007ed565b5060208201518160010190805190602001906200055a929190620007ed565b50604082015181600201556060820151816003015560808201518160040155905050620006dd6040518060600160405280602a8152602001620056a8602a913960066000018054620005ac9062000ddd565b80601f0160208091040260200160405190810160405280929190818152602001828054620005da9062000ddd565b80156200062b5780601f10620005ff576101008083540402835291602001916200062b565b820191906000526020600020905b8154815290600101906020018083116200060d57829003601f168201915b505050505060066002015460066001018054620006489062000ddd565b80601f0160208091040260200160405190810160405280929190818152602001828054620006769062000ddd565b8015620006c75780601f106200069b57610100808354040283529160200191620006c7565b820191906000526020600020905b815481529060010190602001808311620006a957829003601f168201915b50505050506200070260201b62001b981760201c565b620006f4600b620007ae60201b62001c3a1760201c565b505050505050505062000f01565b620007a8848484846040516024016200071f949392919062000c05565b6040516020818303038152906040527f8d142cdd000000000000000000000000000000000000000000000000000000007bffffffffffffffffffffffffffffffffffffffffffffffffffffffff19166020820180517bffffffffffffffffffffffffffffffffffffffffffffffffffffffff8381831617835250505050620007c460201b60201c565b50505050565b6001816000016000828254019250508190555050565b60008151905060006a636f6e736f6c652e6c6f679050602083016000808483855afa5050505050565b828054620007fb9062000ddd565b90600052602060002090601f0160209004810192826200081f57600085556200086b565b82601f106200083a57805160ff19168380011785556200086b565b828001600101855582156200086b579182015b828111156200086a5782518255916020019190600101906200084d565b5b5090506200087a91906200087e565b5090565b5b80821115620008995760008160009055506001016200087f565b5090565b6000620008b4620008ae8462000c90565b62000c67565b9050808382526020820190508260005b85811015620008f85781518501620008dd888262000a16565b845260208401935060208301925050600181019050620008c4565b5050509392505050565b600062000919620009138462000cbf565b62000c67565b905080838252602082019050828560208602820111156200093957600080fd5b60005b858110156200096d578162000952888262000a43565b8452602084019350602083019250506001810190506200093c565b5050509392505050565b60006200098e620009888462000cee565b62000c67565b905082815260208101848484011115620009a757600080fd5b620009b484828562000da7565b509392505050565b600082601f830112620009ce57600080fd5b8151620009e08482602086016200089d565b91505092915050565b600082601f830112620009fb57600080fd5b815162000a0d84826020860162000902565b91505092915050565b600082601f83011262000a2857600080fd5b815162000a3a84826020860162000977565b91505092915050565b60008151905062000a548162000ee7565b92915050565b600080600080600080600080610100898b03121562000a7857600080fd5b600089015167ffffffffffffffff81111562000a9357600080fd5b62000aa18b828c01620009bc565b985050602089015167ffffffffffffffff81111562000abf57600080fd5b62000acd8b828c01620009bc565b975050604089015167ffffffffffffffff81111562000aeb57600080fd5b62000af98b828c01620009e9565b965050606089015167ffffffffffffffff81111562000b1757600080fd5b62000b258b828c01620009e9565b955050608089015167ffffffffffffffff81111562000b4357600080fd5b62000b518b828c0162000a16565b94505060a089015167ffffffffffffffff81111562000b6f57600080fd5b62000b7d8b828c0162000a16565b93505060c062000b908b828c0162000a43565b92505060e062000ba38b828c0162000a43565b9150509295985092959890939650565b600062000bc08262000d24565b62000bcc818562000d2f565b935062000bde81856020860162000da7565b62000be98162000ed6565b840191505092915050565b62000bff8162000d9d565b82525050565b6000608082019050818103600083015262000c21818762000bb3565b9050818103602083015262000c37818662000bb3565b905062000c48604083018562000bf4565b818103606083015262000c5c818462000bb3565b905095945050505050565b600062000c7362000c86565b905062000c81828262000e13565b919050565b6000604051905090565b600067ffffffffffffffff82111562000cae5762000cad62000ea7565b5b602082029050602081019050919050565b600067ffffffffffffffff82111562000cdd5762000cdc62000ea7565b5b602082029050602081019050919050565b600067ffffffffffffffff82111562000d0c5762000d0b62000ea7565b5b62000d178262000ed6565b9050602081019050919050565b600081519050919050565b600082825260208201905092915050565b600062000d4d8262000d9d565b915062000d5a8362000d9d565b9250827fffffffffffffffffffffffffffffffffffffffffffffffffffffffffffffffff0382111562000d925762000d9162000e49565b5b828201905092915050565b6000819050919050565b60005b8381101562000dc757808201518184015260208101905062000daa565b8381111562000dd7576000848401525b50505050565b6000600282049050600182168062000df657607f821691505b6020821081141562000e0d5762000e0c62000e78565b5b50919050565b62000e1e8262000ed6565b810181811067ffffffffffffffff8211171562000e405762000e3f62000ea7565b5b80604052505050565b7f4e487b7100000000000000000000000000000000000000000000000000000000600052601160045260246000fd5b7f4e487b7100000000000000000000000000000000000000000000000000000000600052602260045260246000fd5b7f4e487b7100000000000000000000000000000000000000000000000000000000600052604160045260246000fd5b6000601f19601f8301169050919050565b62000ef28162000d9d565b811462000efe57600080fd5b50565b6147718062000f116000396000f3fe608060405234801561001057600080fd5b50600436106101375760003560e01c806395d89b41116100b8578063b953084e1161007c578063b953084e14610369578063c87b56dd14610387578063c8cf27f4146103b7578063d4f24c5b146103d5578063e985e9c5146103df578063f8b81ef71461040f57610137565b806395d89b41146102bc57806398da4c95146102da578063a22cb4651461030f578063a9c326791461032b578063b88d4fde1461034d57610137565b806323b872dd116100ff57806323b872dd146101f457806342842e0e146102105780636352211e1461022c57806370a082311461025c5780637df124a11461028c57610137565b806301ffc9a71461013c5780630665f9611461016c57806306fdde031461018a578063081812fc146101a8578063095ea7b3146101d8575b600080fd5b61015660048036038101906101519190612fd9565b61042b565b60405161016391906137f8565b60405180910390f35b61017461050d565b6040516101819190613b51565b60405180910390f35b610192610669565b60405161019f9190613813565b60405180910390f35b6101c260048036038101906101bd919061302b565b6106fb565b6040516101cf9190613738565b60405180910390f35b6101f260048036038101906101ed9190612f9d565b610741565b005b61020e60048036038101906102099190612e97565b610859565b005b61022a60048036038101906102259190612e97565b6108b9565b005b6102466004803603810190610241919061302b565b6108d9565b6040516102539190613738565b60405180910390f35b61027660048036038101906102719190612e32565b61098b565b6040516102839190613b95565b60405180910390f35b6102a660048036038101906102a19190612e32565b610a43565b6040516102b39190613b95565b60405180910390f35b6102c4610a5b565b6040516102d19190613813565b60405180910390f35b6102f460048036038101906102ef919061302b565b610aed565b60405161030696959493929190613bb0565b60405180910390f35b61032960048036038101906103249190612f61565b610c39565b005b610333610c4f565b6040516103449594939291906138e2565b60405180910390f35b61036760048036038101906103629190612ee6565b610d83565b005b610371610de5565b60405161037e91906137d6565b60405180910390f35b6103a1600480360381019061039c919061302b565b610f90565b6040516103ae9190613813565b60405180910390f35b6103bf6111ab565b6040516103cc9190613b73565b60405180910390f35b6103dd611383565b005b6103f960048036038101906103f49190612e5b565b611710565b60405161040691906137f8565b60405180910390f35b6104296004803603810190610424919061302b565b6117a4565b005b60007f80ac58cd000000000000000000000000000000000000000000000000000000007bffffffffffffffffffffffffffffffffffffffffffffffffffffffff1916827bffffffffffffffffffffffffffffffffffffffffffffffffffffffff191614806104f657507f5b5e139f000000000000000000000000000000000000000000000000000000007bffffffffffffffffffffffffffffffffffffffffffffffffffffffff1916827bffffffffffffffffffffffffffffffffffffffffffffffffffffffff1916145b80610506575061050582611c50565b5b9050919050565b610515612c59565b60066040518060a001604052908160008201805461053290613ecd565b80601f016020809104026020016040519081016040528092919081815260200182805461055e90613ecd565b80156105ab5780601f10610580576101008083540402835291602001916105ab565b820191906000526020600020905b81548152906001019060200180831161058e57829003601f168201915b505050505081526020016001820180546105c490613ecd565b80601f01602080910402602001604051908101604052809291908181526020018280546105f090613ecd565b801561063d5780601f106106125761010080835404028352916020019161063d565b820191906000526020600020905b81548152906001019060200180831161062057829003601f168201915b505050505081526020016002820154815260200160038201548152602001600482015481525050905090565b60606000805461067890613ecd565b80601f01602080910402602001604051908101604052809291908181526020018280546106a490613ecd565b80156106f15780601f106106c6576101008083540402835291602001916106f1565b820191906000526020600020905b8154815290600101906020018083116106d457829003601f168201915b5050505050905090565b600061070682611cba565b6004600083815260200190815260200160002060009054906101000a900473ffffffffffffffffffffffffffffffffffffffff169050919050565b600061074c826108d9565b90508073ffffffffffffffffffffffffffffffffffffffff168373ffffffffffffffffffffffffffffffffffffffff1614156107bd576040517f08c379a00000000000000000000000000000000000000000000000000000000081526004016107b490613b11565b60405180910390fd5b8073ffffffffffffffffffffffffffffffffffffffff166107dc611d05565b73ffffffffffffffffffffffffffffffffffffffff16148061080b575061080a81610805611d05565b611710565b5b61084a576040517f08c379a000000000000000000000000000000000000000000000000000000000815260040161084190613ab1565b60405180910390fd5b6108548383611d0d565b505050565b61086a610864611d05565b82611dc6565b6108a9576040517f08c379a00000000000000000000000000000000000000000000000000000000081526004016108a090613b31565b60405180910390fd5b6108b4838383611e5b565b505050565b6108d483838360405180602001604052806000815250610d83565b505050565b6000806002600084815260200190815260200160002060009054906101000a900473ffffffffffffffffffffffffffffffffffffffff169050600073ffffffffffffffffffffffffffffffffffffffff168173ffffffffffffffffffffffffffffffffffffffff161415610982576040517f08c379a000000000000000000000000000000000000000000000000000000000815260040161097990613af1565b60405180910390fd5b80915050919050565b60008073ffffffffffffffffffffffffffffffffffffffff168273ffffffffffffffffffffffffffffffffffffffff1614156109fc576040517f08c379a00000000000000000000000000000000000000000000000000000000081526004016109f390613a71565b60405180910390fd5b600360008373ffffffffffffffffffffffffffffffffffffffff1673ffffffffffffffffffffffffffffffffffffffff168152602001908152602001600020549050919050565b600e6020528060005260406000206000915090505481565b606060018054610a6a90613ecd565b80601f0160208091040260200160405190810160405280929190818152602001828054610a9690613ecd565b8015610ae35780601f10610ab857610100808354040283529160200191610ae3565b820191906000526020600020905b815481529060010190602001808311610ac657829003601f168201915b5050505050905090565b600d602052806000526040600020600091509050806000015490806001015490806002015490806003015490806004018054610b2890613ecd565b80601f0160208091040260200160405190810160405280929190818152602001828054610b5490613ecd565b8015610ba15780601f10610b7657610100808354040283529160200191610ba1565b820191906000526020600020905b815481529060010190602001808311610b8457829003601f168201915b505050505090806005018054610bb690613ecd565b80601f0160208091040260200160405190810160405280929190818152602001828054610be290613ecd565b8015610c2f5780601f10610c0457610100808354040283529160200191610c2f565b820191906000526020600020905b815481529060010190602001808311610c1257829003601f168201915b5050505050905086565b610c4b610c44611d05565b83836120c2565b5050565b6006806000018054610c6090613ecd565b80601f0160208091040260200160405190810160405280929190818152602001828054610c8c90613ecd565b8015610cd95780601f10610cae57610100808354040283529160200191610cd9565b820191906000526020600020905b815481529060010190602001808311610cbc57829003601f168201915b505050505090806001018054610cee90613ecd565b80601f0160208091040260200160405190810160405280929190818152602001828054610d1a90613ecd565b8015610d675780601f10610d3c57610100808354040283529160200191610d67565b820191906000526020600020905b815481529060010190602001808311610d4a57829003601f168201915b5050505050908060020154908060030154908060040154905085565b610d94610d8e611d05565b83611dc6565b610dd3576040517f08c379a0000000000000000000000000000000000000000000000000000000008152600401610dca90613b31565b60405180910390fd5b610ddf8484848461222f565b50505050565b6060600c805480602002602001604051908101604052809291908181526020016000905b82821015610f8757838290600052602060002090600602016040518060c001604052908160008201548152602001600182015481526020016002820154815260200160038201548152602001600482018054610e6490613ecd565b80601f0160208091040260200160405190810160405280929190818152602001828054610e9090613ecd565b8015610edd5780601f10610eb257610100808354040283529160200191610edd565b820191906000526020600020905b815481529060010190602001808311610ec057829003601f168201915b50505050508152602001600582018054610ef690613ecd565b80601f0160208091040260200160405190810160405280929190818152602001828054610f2290613ecd565b8015610f6f5780601f10610f4457610100808354040283529160200191610f6f565b820191906000526020600020905b815481529060010190602001808311610f5257829003601f168201915b50505050508152505081526020019060010190610e09565b50505050905090565b60606000600d60008481526020019081526020016000206040518060c001604052908160008201548152602001600182015481526020016002820154815260200160038201548152602001600482018054610fea90613ecd565b80601f016020809104026020016040519081016040528092919081815260200182805461101690613ecd565b80156110635780601f1061103857610100808354040283529160200191611063565b820191906000526020600020905b81548152906001019060200180831161104657829003601f168201915b5050505050815260200160058201805461107c90613ecd565b80601f01602080910402602001604051908101604052809291908181526020018280546110a890613ecd565b80156110f55780601f106110ca576101008083540402835291602001916110f5565b820191906000526020600020905b8154815290600101906020018083116110d857829003601f168201915b5050505050815250509050600061110f826020015161228b565b90506000611120836040015161228b565b90506000611131846060015161228b565b9050600061117785608001516111468961228b565b8760a0015187878760405160200161116396959493929190613671565b604051602081830303815290604052612438565b905060008160405160200161118c9190613716565b6040516020818303038152906040529050809650505050505050919050565b6111b3612c88565b6000600e60003373ffffffffffffffffffffffffffffffffffffffff1673ffffffffffffffffffffffffffffffffffffffff168152602001908152602001600020549050600081111561137257600d60008281526020019081526020016000206040518060c00160405290816000820154815260200160018201548152602001600282015481526020016003820154815260200160048201805461125690613ecd565b80601f016020809104026020016040519081016040528092919081815260200182805461128290613ecd565b80156112cf5780601f106112a4576101008083540402835291602001916112cf565b820191906000526020600020905b8154815290600101906020018083116112b257829003601f168201915b505050505081526020016005820180546112e890613ecd565b80601f016020809104026020016040519081016040528092919081815260200182805461131490613ecd565b80156113615780601f1061133657610100808354040283529160200191611361565b820191906000526020600020905b81548152906001019060200180831161134457829003601f168201915b505050505081525050915050611380565b61137a612c88565b80925050505b90565b6000600e60003373ffffffffffffffffffffffffffffffffffffffff1673ffffffffffffffffffffffffffffffffffffffff1681526020019081526020016000205490506000600d600083815260200190815260200160002090506114966040518060600160405280603c8152602001614700603c913982600401805461140990613ecd565b80601f016020809104026020016040519081016040528092919081815260200182805461143590613ecd565b80156114825780601f1061145757610100808354040283529160200191611482565b820191906000526020600020905b81548152906001019060200180831161146557829003601f168201915b5050505050836001015484600301546125c2565b61156e6040518060400160405280601b81526020017f426f73732025732068617320257320485020616e642025732041440000000000815250600660000180546114df90613ecd565b80601f016020809104026020016040519081016040528092919081815260200182805461150b90613ecd565b80156115585780601f1061152d57610100808354040283529160200191611558565b820191906000526020600020905b81548152906001019060200180831161153b57829003601f168201915b50505050506006600201546006600401546125c2565b60008160010154116115b5576040517f08c379a00000000000000000000000000000000000000000000000000000000081526004016115ac90613a91565b60405180910390fd5b6000600660020154116115fd576040517f08c379a00000000000000000000000000000000000000000000000000000000081526004016115f4906139b1565b60405180910390fd5b8060030154600660020154101561161e57600060066002018190555061163d565b80600301546006600201546116339190613de3565b6006600201819055505b6006600401548160010154101561165d576000816001018190555061167b565b60066004015481600101546116729190613de3565b81600101819055505b6116a260405180606001604052806025815260200161464560259139600660020154612664565b6116c86040518060600160405280602881526020016146aa602891398260010154612664565b7f32bd565ee3f2cb5ddd742bbecd6048d3e9abe90b3827a40c2b72d232e71e3c9d3360066002015483600101546040516117049392919061379f565b60405180910390a15050565b6000600560008473ffffffffffffffffffffffffffffffffffffffff1673ffffffffffffffffffffffffffffffffffffffff16815260200190815260200160002060008373ffffffffffffffffffffffffffffffffffffffff1673ffffffffffffffffffffffffffffffffffffffff16815260200190815260200160002060009054906101000a900460ff16905092915050565b60006117b0600b612700565b90506117bc338261270e565b6040518060c00160405280838152602001600c8481548110611807577f4e487b7100000000000000000000000000000000000000000000000000000000600052603260045260246000fd5b9060005260206000209060060201600101548152602001600c8481548110611858577f4e487b7100000000000000000000000000000000000000000000000000000000600052603260045260246000fd5b9060005260206000209060060201600201548152602001600c84815481106118a9577f4e487b7100000000000000000000000000000000000000000000000000000000600052603260045260246000fd5b9060005260206000209060060201600301548152602001600c84815481106118fa577f4e487b7100000000000000000000000000000000000000000000000000000000600052603260045260246000fd5b9060005260206000209060060201600401805461191690613ecd565b80601f016020809104026020016040519081016040528092919081815260200182805461194290613ecd565b801561198f5780601f106119645761010080835404028352916020019161198f565b820191906000526020600020905b81548152906001019060200180831161197257829003601f168201915b50505050508152602001600c84815481106119d3577f4e487b7100000000000000000000000000000000000000000000000000000000600052603260045260246000fd5b906000526020600020906006020160050180546119ef90613ecd565b80601f0160208091040260200160405190810160405280929190818152602001828054611a1b90613ecd565b8015611a685780601f10611a3d57610100808354040283529160200191611a68565b820191906000526020600020905b815481529060010190602001808311611a4b57829003601f168201915b5050505050815250600d6000838152602001908152602001600020600082015181600001556020820151816001015560408201518160020155606082015181600301556080820151816004019080519060200190611ac7929190612cbe565b5060a0820151816005019080519060200190611ae4929190612cbe565b50905050611b0b6040518060600160405280602e81526020016146d2602e9139828461272c565b80600e60003373ffffffffffffffffffffffffffffffffffffffff1673ffffffffffffffffffffffffffffffffffffffff16815260200190815260200160002081905550611b59600b611c3a565b7f4bc303fd457a97b4691b9af582ce71868a3d258638c8d4f8c60988a0f0bfb8cd338284604051611b8c9392919061379f565b60405180910390a15050565b611c3484848484604051602401611bb29493929190613835565b6040516020818303038152906040527f8d142cdd000000000000000000000000000000000000000000000000000000007bffffffffffffffffffffffffffffffffffffffffffffffffffffffff19166020820180517bffffffffffffffffffffffffffffffffffffffffffffffffffffffff83818316178352505050506127cb565b50505050565b6001816000016000828254019250508190555050565b60007f01ffc9a7000000000000000000000000000000000000000000000000000000007bffffffffffffffffffffffffffffffffffffffffffffffffffffffff1916827bffffffffffffffffffffffffffffffffffffffffffffffffffffffff1916149050919050565b611cc3816127f4565b611d02576040517f08c379a0000000000000000000000000000000000000000000000000000000008152600401611cf990613af1565b60405180910390fd5b50565b600033905090565b816004600083815260200190815260200160002060006101000a81548173ffffffffffffffffffffffffffffffffffffffff021916908373ffffffffffffffffffffffffffffffffffffffff160217905550808273ffffffffffffffffffffffffffffffffffffffff16611d80836108d9565b73ffffffffffffffffffffffffffffffffffffffff167f8c5be1e5ebec7d5bd14f71427d1e84f3dd0314c0f7b2291e5b200ac8c7c3b92560405160405180910390a45050565b600080611dd2836108d9565b90508073ffffffffffffffffffffffffffffffffffffffff168473ffffffffffffffffffffffffffffffffffffffff161480611e145750611e138185611710565b5b80611e5257508373ffffffffffffffffffffffffffffffffffffffff16611e3a846106fb565b73ffffffffffffffffffffffffffffffffffffffff16145b91505092915050565b8273ffffffffffffffffffffffffffffffffffffffff16611e7b826108d9565b73ffffffffffffffffffffffffffffffffffffffff1614611ed1576040517f08c379a0000000000000000000000000000000000000000000000000000000008152600401611ec8906139f1565b60405180910390fd5b600073ffffffffffffffffffffffffffffffffffffffff168273ffffffffffffffffffffffffffffffffffffffff161415611f41576040517f08c379a0000000000000000000000000000000000000000000000000000000008152600401611f3890613a31565b60405180910390fd5b611f4c838383612860565b611f57600082611d0d565b6001600360008573ffffffffffffffffffffffffffffffffffffffff1673ffffffffffffffffffffffffffffffffffffffff1681526020019081526020016000206000828254611fa79190613de3565b925050819055506001600360008473ffffffffffffffffffffffffffffffffffffffff1673ffffffffffffffffffffffffffffffffffffffff1681526020019081526020016000206000828254611ffe9190613d02565b92505081905550816002600083815260200190815260200160002060006101000a81548173ffffffffffffffffffffffffffffffffffffffff021916908373ffffffffffffffffffffffffffffffffffffffff160217905550808273ffffffffffffffffffffffffffffffffffffffff168473ffffffffffffffffffffffffffffffffffffffff167fddf252ad1be2c89b69c2b068fc378daa952ba7f163c4a11628f55a4df523b3ef60405160405180910390a46120bd838383612865565b505050565b8173ffffffffffffffffffffffffffffffffffffffff168373ffffffffffffffffffffffffffffffffffffffff161415612131576040517f08c379a000000000000000000000000000000000000000000000000000000000815260040161212890613a51565b60405180910390fd5b80600560008573ffffffffffffffffffffffffffffffffffffffff1673ffffffffffffffffffffffffffffffffffffffff16815260200190815260200160002060008473ffffffffffffffffffffffffffffffffffffffff1673ffffffffffffffffffffffffffffffffffffffff16815260200190815260200160002060006101000a81548160ff0219169083151502179055508173ffffffffffffffffffffffffffffffffffffffff168373ffffffffffffffffffffffffffffffffffffffff167f17307eab39ab6107e8899845ad3d59bd9653f200f220920489ca2b5937696c318360405161222291906137f8565b60405180910390a3505050565b61223a848484611e5b565b6122468484848461286a565b612285576040517f08c379a000000000000000000000000000000000000000000000000000000000815260040161227c906139d1565b60405180910390fd5b50505050565b606060008214156122d3576040518060400160405280600181526020017f30000000000000000000000000000000000000000000000000000000000000008152509050612433565b600082905060005b600082146123055780806122ee90613f30565b915050600a826122fe9190613d58565b91506122db565b60008167ffffffffffffffff811115612347577f4e487b7100000000000000000000000000000000000000000000000000000000600052604160045260246000fd5b6040519080825280601f01601f1916602001820160405280156123795781602001600182028036833780820191505090505b5090505b6000851461242c576001826123929190613de3565b9150600a856123a19190613f79565b60306123ad9190613d02565b60f81b8183815181106123e9577f4e487b7100000000000000000000000000000000000000000000000000000000600052603260045260246000fd5b60200101907effffffffffffffffffffffffffffffffffffffffffffffffffffffffffffff1916908160001a905350600a856124259190613d58565b945061237d565b8093505050505b919050565b606060008251141561245b576040518060200160405280600081525090506125bd565b600060405180606001604052806040815260200161466a604091399050600060036002855161248a9190613d02565b6124949190613d58565b60046124a09190613d89565b67ffffffffffffffff8111156124df577f4e487b7100000000000000000000000000000000000000000000000000000000600052604160045260246000fd5b6040519080825280601f01601f1916602001820160405280156125115781602001600182028036833780820191505090505b509050600182016020820185865187015b8082101561257d576003820191508151603f8160121c168501518453600184019350603f81600c1c168501518453600184019350603f8160061c168501518453600184019350603f8116850151845360018401935050612522565b505060038651066001811461259957600281146125ac576125b4565b603d6001830353603d60028303536125b4565b603d60018303535b50505080925050505b919050565b61265e848484846040516024016125dc949392919061388f565b6040516020818303038152906040527fd5cf17d0000000000000000000000000000000000000000000000000000000007bffffffffffffffffffffffffffffffffffffffffffffffffffffffff19166020820180517bffffffffffffffffffffffffffffffffffffffffffffffffffffffff83818316178352505050506127cb565b50505050565b6126fc828260405160240161267a929190613943565b6040516020818303038152906040527f9710a9d0000000000000000000000000000000000000000000000000000000007bffffffffffffffffffffffffffffffffffffffffffffffffffffffff19166020820180517bffffffffffffffffffffffffffffffffffffffffffffffffffffffff83818316178352505050506127cb565b5050565b600081600001549050919050565b612728828260405180602001604052806000815250612a01565b5050565b6127c683838360405160240161274493929190613973565b6040516020818303038152906040527f969cdd03000000000000000000000000000000000000000000000000000000007bffffffffffffffffffffffffffffffffffffffffffffffffffffffff19166020820180517bffffffffffffffffffffffffffffffffffffffffffffffffffffffff83818316178352505050506127cb565b505050565b60008151905060006a636f6e736f6c652e6c6f679050602083016000808483855afa5050505050565b60008073ffffffffffffffffffffffffffffffffffffffff166002600084815260200190815260200160002060009054906101000a900473ffffffffffffffffffffffffffffffffffffffff1673ffffffffffffffffffffffffffffffffffffffff1614159050919050565b505050565b505050565b600061288b8473ffffffffffffffffffffffffffffffffffffffff16612a5c565b156129f4578373ffffffffffffffffffffffffffffffffffffffff1663150b7a026128b4611d05565b8786866040518563ffffffff1660e01b81526004016128d69493929190613753565b602060405180830381600087803b1580156128f057600080fd5b505af192505050801561292157506040513d601f19601f8201168201806040525081019061291e9190613002565b60015b6129a4573d8060008114612951576040519150601f19603f3d011682016040523d82523d6000602084013e612956565b606091505b5060008151141561299c576040517f08c379a0000000000000000000000000000000000000000000000000000000008152600401612993906139d1565b60405180910390fd5b805181602001fd5b63150b7a0260e01b7bffffffffffffffffffffffffffffffffffffffffffffffffffffffff1916817bffffffffffffffffffffffffffffffffffffffffffffffffffffffff1916149150506129f9565b600190505b949350505050565b612a0b8383612a7f565b612a18600084848461286a565b612a57576040517f08c379a0000000000000000000000000000000000000000000000000000000008152600401612a4e906139d1565b60405180910390fd5b505050565b6000808273ffffffffffffffffffffffffffffffffffffffff163b119050919050565b600073ffffffffffffffffffffffffffffffffffffffff168273ffffffffffffffffffffffffffffffffffffffff161415612aef576040517f08c379a0000000000000000000000000000000000000000000000000000000008152600401612ae690613ad1565b60405180910390fd5b612af8816127f4565b15612b38576040517f08c379a0000000000000000000000000000000000000000000000000000000008152600401612b2f90613a11565b60405180910390fd5b612b4460008383612860565b6001600360008473ffffffffffffffffffffffffffffffffffffffff1673ffffffffffffffffffffffffffffffffffffffff1681526020019081526020016000206000828254612b949190613d02565b92505081905550816002600083815260200190815260200160002060006101000a81548173ffffffffffffffffffffffffffffffffffffffff021916908373ffffffffffffffffffffffffffffffffffffffff160217905550808273ffffffffffffffffffffffffffffffffffffffff16600073ffffffffffffffffffffffffffffffffffffffff167fddf252ad1be2c89b69c2b068fc378daa952ba7f163c4a11628f55a4df523b3ef60405160405180910390a4612c5560008383612865565b5050565b6040518060a0016040528060608152602001606081526020016000815260200160008152602001600081525090565b6040518060c001604052806000815260200160008152602001600081526020016000815260200160608152602001606081525090565b828054612cca90613ecd565b90600052602060002090601f016020900481019282612cec5760008555612d33565b82601f10612d0557805160ff1916838001178555612d33565b82800160010185558215612d33579182015b82811115612d32578251825591602001919060010190612d17565b5b509050612d409190612d44565b5090565b5b80821115612d5d576000816000905550600101612d45565b5090565b6000612d74612d6f84613c44565b613c1f565b905082815260208101848484011115612d8c57600080fd5b612d97848285613e8b565b509392505050565b600081359050612dae816145e8565b92915050565b600081359050612dc3816145ff565b92915050565b600081359050612dd881614616565b92915050565b600081519050612ded81614616565b92915050565b600082601f830112612e0457600080fd5b8135612e14848260208601612d61565b91505092915050565b600081359050612e2c8161462d565b92915050565b600060208284031215612e4457600080fd5b6000612e5284828501612d9f565b91505092915050565b60008060408385031215612e6e57600080fd5b6000612e7c85828601612d9f565b9250506020612e8d85828601612d9f565b9150509250929050565b600080600060608486031215612eac57600080fd5b6000612eba86828701612d9f565b9350506020612ecb86828701612d9f565b9250506040612edc86828701612e1d565b9150509250925092565b60008060008060808587031215612efc57600080fd5b6000612f0a87828801612d9f565b9450506020612f1b87828801612d9f565b9350506040612f2c87828801612e1d565b925050606085013567ffffffffffffffff811115612f4957600080fd5b612f5587828801612df3565b91505092959194509250565b60008060408385031215612f7457600080fd5b6000612f8285828601612d9f565b9250506020612f9385828601612db4565b9150509250929050565b60008060408385031215612fb057600080fd5b6000612fbe85828601612d9f565b9250506020612fcf85828601612e1d565b9150509250929050565b600060208284031215612feb57600080fd5b6000612ff984828501612dc9565b91505092915050565b60006020828403121561301457600080fd5b600061302284828501612dde565b91505092915050565b60006020828403121561303d57600080fd5b600061304b84828501612e1d565b91505092915050565b60006130608383613533565b905092915050565b61307181613e17565b82525050565b600061308282613c85565b61308c8185613cb3565b93508360208202850161309e85613c75565b8060005b858110156130da57848403895281516130bb8582613054565b94506130c683613ca6565b925060208a019950506001810190506130a2565b50829750879550505050505092915050565b6130f581613e29565b82525050565b600061310682613c90565b6131108185613cc4565b9350613120818560208601613e9a565b61312981614066565b840191505092915050565b600061313f82613c9b565b6131498185613cd5565b9350613159818560208601613e9a565b61316281614066565b840191505092915050565b600061317882613c9b565b6131828185613ce6565b9350613192818560208601613e9a565b61319b81614066565b840191505092915050565b60006131b182613c9b565b6131bb8185613cf7565b93506131cb818560208601613e9a565b80840191505092915050565b60006131e4600b83613cf7565b91506131ef82614077565b600b82019050919050565b6000613207602d83613ce6565b9150613212826140a0565b604082019050919050565b600061322a603283613ce6565b9150613235826140ef565b604082019050919050565b600061324d602583613ce6565b91506132588261413e565b604082019050919050565b6000613270601c83613ce6565b915061327b8261418d565b602082019050919050565b6000613293600e83613cf7565b915061329e826141b6565b600e82019050919050565b60006132b6602483613ce6565b91506132c1826141df565b604082019050919050565b60006132d9601983613ce6565b91506132e48261422e565b602082019050919050565b60006132fc602983613ce6565b915061330782614257565b604082019050919050565b600061331f602d83613ce6565b915061332a826142a6565b604082019050919050565b6000613342600483613cf7565b915061334d826142f5565b600482019050919050565b6000613365603e83613ce6565b91506133708261431e565b604082019050919050565b6000613388602083613ce6565b91506133938261436d565b602082019050919050565b60006133ab600a83613cf7565b91506133b682614396565b600a82019050919050565b60006133ce601883613ce6565b91506133d9826143bf565b602082019050919050565b60006133f1602183613ce6565b91506133fc826143e8565b604082019050919050565b6000613414601d83613cf7565b915061341f82614437565b601d82019050919050565b6000613437606983613cf7565b915061344282614460565b606982019050919050565b600061345a603d83613cf7565b9150613465826144fb565b603d82019050919050565b600061347d602d83613cf7565b91506134888261454a565b602d82019050919050565b60006134a0602e83613ce6565b91506134ab82614599565b604082019050919050565b600060a08301600083015184820360008601526134d38282613134565b915050602083015184820360208601526134ed8282613134565b91505060408301516135026040860182613653565b5060608301516135156060860182613653565b5060808301516135286080860182613653565b508091505092915050565b600060c08301600083015161354b6000860182613653565b50602083015161355e6020860182613653565b5060408301516135716040860182613653565b5060608301516135846060860182613653565b506080830151848203608086015261359c8282613134565b91505060a083015184820360a08601526135b68282613134565b9150508091505092915050565b600060c0830160008301516135db6000860182613653565b5060208301516135ee6020860182613653565b5060408301516136016040860182613653565b5060608301516136146060860182613653565b506080830151848203608086015261362c8282613134565b91505060a083015184820360a08601526136468282613134565b9150508091505092915050565b61365c81613e81565b82525050565b61366b81613e81565b82525050565b600061367c8261339e565b915061368882896131a6565b9150613693826131d7565b915061369f82886131a6565b91506136aa8261342a565b91506136b682876131a6565b91506136c18261344d565b91506136cd82866131a6565b91506136d882613286565b91506136e482856131a6565b91506136ef82613470565b91506136fb82846131a6565b915061370682613335565b9150819050979650505050505050565b600061372182613407565b915061372d82846131a6565b915081905092915050565b600060208201905061374d6000830184613068565b92915050565b60006080820190506137686000830187613068565b6137756020830186613068565b6137826040830185613662565b818103606083015261379481846130fb565b905095945050505050565b60006060820190506137b46000830186613068565b6137c16020830185613662565b6137ce6040830184613662565b949350505050565b600060208201905081810360008301526137f08184613077565b905092915050565b600060208201905061380d60008301846130ec565b92915050565b6000602082019050818103600083015261382d818461316d565b905092915050565b6000608082019050818103600083015261384f818761316d565b90508181036020830152613863818661316d565b90506138726040830185613662565b8181036060830152613884818461316d565b905095945050505050565b600060808201905081810360008301526138a9818761316d565b905081810360208301526138bd818661316d565b90506138cc6040830185613662565b6138d96060830184613662565b95945050505050565b600060a08201905081810360008301526138fc818861316d565b90508181036020830152613910818761316d565b905061391f6040830186613662565b61392c6060830185613662565b6139396080830184613662565b9695505050505050565b6000604082019050818103600083015261395d818561316d565b905061396c6020830184613662565b9392505050565b6000606082019050818103600083015261398d818661316d565b905061399c6020830185613662565b6139a96040830184613662565b949350505050565b600060208201905081810360008301526139ca816131fa565b9050919050565b600060208201905081810360008301526139ea8161321d565b9050919050565b60006020820190508181036000830152613a0a81613240565b9050919050565b60006020820190508181036000830152613a2a81613263565b9050919050565b60006020820190508181036000830152613a4a816132a9565b9050919050565b60006020820190508181036000830152613a6a816132cc565b9050919050565b60006020820190508181036000830152613a8a816132ef565b9050919050565b60006020820190508181036000830152613aaa81613312565b9050919050565b60006020820190508181036000830152613aca81613358565b9050919050565b60006020820190508181036000830152613aea8161337b565b9050919050565b60006020820190508181036000830152613b0a816133c1565b9050919050565b60006020820190508181036000830152613b2a816133e4565b9050919050565b60006020820190508181036000830152613b4a81613493565b9050919050565b60006020820190508181036000830152613b6b81846134b6565b905092915050565b60006020820190508181036000830152613b8d81846135c3565b905092915050565b6000602082019050613baa6000830184613662565b92915050565b600060c082019050613bc56000830189613662565b613bd26020830188613662565b613bdf6040830187613662565b613bec6060830186613662565b8181036080830152613bfe818561316d565b905081810360a0830152613c12818461316d565b9050979650505050505050565b6000613c29613c3a565b9050613c358282613eff565b919050565b6000604051905090565b600067ffffffffffffffff821115613c5f57613c5e614037565b5b613c6882614066565b9050602081019050919050565b6000819050602082019050919050565b600081519050919050565b600081519050919050565b600081519050919050565b6000602082019050919050565b600082825260208201905092915050565b600082825260208201905092915050565b600082825260208201905092915050565b600082825260208201905092915050565b600081905092915050565b6000613d0d82613e81565b9150613d1883613e81565b9250827fffffffffffffffffffffffffffffffffffffffffffffffffffffffffffffffff03821115613d4d57613d4c613faa565b5b828201905092915050565b6000613d6382613e81565b9150613d6e83613e81565b925082613d7e57613d7d613fd9565b5b828204905092915050565b6000613d9482613e81565b9150613d9f83613e81565b9250817fffffffffffffffffffffffffffffffffffffffffffffffffffffffffffffffff0483118215151615613dd857613dd7613faa565b5b828202905092915050565b6000613dee82613e81565b9150613df983613e81565b925082821015613e0c57613e0b613faa565b5b828203905092915050565b6000613e2282613e61565b9050919050565b60008115159050919050565b60007fffffffff0000000000000000000000000000000000000000000000000000000082169050919050565b600073ffffffffffffffffffffffffffffffffffffffff82169050919050565b6000819050919050565b82818337600083830152505050565b60005b83811015613eb8578082015181840152602081019050613e9d565b83811115613ec7576000848401525b50505050565b60006002820490506001821680613ee557607f821691505b60208210811415613ef957613ef8614008565b5b50919050565b613f0882614066565b810181811067ffffffffffffffff82111715613f2757613f26614037565b5b80604052505050565b6000613f3b82613e81565b91507fffffffffffffffffffffffffffffffffffffffffffffffffffffffffffffffff821415613f6e57613f6d613faa565b5b600182019050919050565b6000613f8482613e81565b9150613f8f83613e81565b925082613f9f57613f9e613fd9565b5b828206905092915050565b7f4e487b7100000000000000000000000000000000000000000000000000000000600052601160045260246000fd5b7f4e487b7100000000000000000000000000000000000000000000000000000000600052601260045260246000fd5b7f4e487b7100000000000000000000000000000000000000000000000000000000600052602260045260246000fd5b7f4e487b7100000000000000000000000000000000000000000000000000000000600052604160045260246000fd5b6000601f19601f8301169050919050565b7f202d2d204e465420233a20000000000000000000000000000000000000000000600082015250565b7f4572726f723a20626f7373206d757374206861766520485020746f206174746160008201527f636b206368617261637465722e00000000000000000000000000000000000000602082015250565b7f4552433732313a207472616e7366657220746f206e6f6e20455243373231526560008201527f63656976657220696d706c656d656e7465720000000000000000000000000000602082015250565b7f4552433732313a207472616e736665722066726f6d20696e636f72726563742060008201527f6f776e6572000000000000000000000000000000000000000000000000000000602082015250565b7f4552433732313a20746f6b656e20616c7265616479206d696e74656400000000600082015250565b7f2c20226d61785f76616c7565223a000000000000000000000000000000000000600082015250565b7f4552433732313a207472616e7366657220746f20746865207a65726f2061646460008201527f7265737300000000000000000000000000000000000000000000000000000000602082015250565b7f4552433732313a20617070726f766520746f2063616c6c657200000000000000600082015250565b7f4552433732313a2061646472657373207a65726f206973206e6f74206120766160008201527f6c6964206f776e65720000000000000000000000000000000000000000000000602082015250565b7f4572726f723a20636861726163746572206d757374206861766520485020746f60008201527f2061747461636b20626f73732e00000000000000000000000000000000000000602082015250565b7f7d205d7d00000000000000000000000000000000000000000000000000000000600082015250565b7f4552433732313a20617070726f76652063616c6c6572206973206e6f7420746f60008201527f6b656e206f776e6572206e6f7220617070726f76656420666f7220616c6c0000602082015250565b7f4552433732313a206d696e7420746f20746865207a65726f2061646472657373600082015250565b7f7b226e616d65223a202200000000000000000000000000000000000000000000600082015250565b7f4552433732313a20696e76616c696420746f6b656e2049440000000000000000600082015250565b7f4552433732313a20617070726f76616c20746f2063757272656e74206f776e6560008201527f7200000000000000000000000000000000000000000000000000000000000000602082015250565b7f646174613a6170706c69636174696f6e2f6a736f6e3b6261736536342c000000600082015250565b7f222c20226465736372697074696f6e223a20225468697320697320616e204e4660008201527f542074686174206c6574732070656f706c6520706c617920696e20746865206760208201527f616d65204d657461766572736520536c6179657221222c2022696d616765223a60408201527f2022697066733a2f2f0000000000000000000000000000000000000000000000606082015250565b7f222c202261747472696275746573223a205b207b202274726169745f7479706560008201527f223a20224865616c746820506f696e7473222c202276616c7565223a20000000602082015250565b7f7d2c207b202274726169745f74797065223a202241747461636b2044616d616760008201527f65222c202276616c7565223a2000000000000000000000000000000000000000602082015250565b7f4552433732313a2063616c6c6572206973206e6f7420746f6b656e206f776e6560008201527f72206e6f7220617070726f766564000000000000000000000000000000000000602082015250565b6145f181613e17565b81146145fc57600080fd5b50565b61460881613e29565b811461461357600080fd5b50565b61461f81613e35565b811461462a57600080fd5b50565b61463681613e81565b811461464157600080fd5b5056fe506c617965722061747461636b656420626f73732e204e657720626f73732068703a2025734142434445464748494a4b4c4d4e4f505152535455565758595a6162636465666768696a6b6c6d6e6f707172737475767778797a303132333435363738392b2f426f73732061747461636b656420706c617965722e204e657720706c617965722068703a2025730a4d696e746564204e465420772f20746f6b656e496420257320616e6420636861726163746572496e6465782025730a506c6179657220772f206368617261637465722025732061626f757420746f2061747461636b2e2048617320257320485020616e64202573204144a2646970667358221220e6f2aaf24e5f29b48dffb0e2a9adabeac0ff5b76f3aa1859794455a705c20a8664736f6c63430008010033446f6e6520696e697469616c697a696e6720257320772f2048502025732c20696d6720257320446f6e6520696e697469616c697a696e6720626f737320257320772f2048502025732c20696d67202573",
  "linkReferences": {},
  "deployedLinkReferences": {}
}